{
  "_format": "hh-sol-artifact-1",
  "contractName": "Create",
  "sourceName": "contracts/Create.sol",
  "abi": [
    {
      "inputs": [
        {
          "internalType": "uint256",
          "name": "id",
          "type": "uint256"
        },
        {
          "internalType": "uint256",
          "name": "quantity",
          "type": "uint256"
        }
      ],
      "name": "buyTicket",
      "outputs": [],
      "stateMutability": "payable",
      "type": "function"
    },
    {
      "inputs": [
        {
          "internalType": "string",
          "name": "name",
          "type": "string"
        },
        {
          "internalType": "string",
          "name": "date",
          "type": "string"
        },
        {
          "internalType": "uint256",
          "name": "price",
          "type": "uint256"
        },
        {
          "internalType": "uint256",
          "name": "ticketCount",
          "type": "uint256"
        }
      ],
      "name": "createEvent",
      "outputs": [],
      "stateMutability": "nonpayable",
      "type": "function"
    },
    {
      "inputs": [
        {
          "internalType": "uint256",
          "name": "",
          "type": "uint256"
        }
      ],
      "name": "events",
      "outputs": [
        {
          "internalType": "address",
          "name": "organizer",
          "type": "address"
        },
        {
          "internalType": "string",
          "name": "name",
          "type": "string"
        },
        {
          "internalType": "string",
          "name": "date",
          "type": "string"
        },
        {
          "internalType": "uint256",
          "name": "price",
          "type": "uint256"
        },
        {
          "internalType": "uint256",
          "name": "ticketCount",
          "type": "uint256"
        },
        {
          "internalType": "uint256",
          "name": "ticketRemain",
          "type": "uint256"
        }
      ],
      "stateMutability": "view",
      "type": "function"
    },
    {
      "inputs": [],
      "name": "nextId",
      "outputs": [
        {
          "internalType": "uint256",
          "name": "",
          "type": "uint256"
        }
      ],
      "stateMutability": "view",
      "type": "function"
    },
    {
      "inputs": [
        {
          "internalType": "address",
          "name": "",
          "type": "address"
        },
        {
          "internalType": "uint256",
          "name": "",
          "type": "uint256"
        }
      ],
      "name": "tickets",
      "outputs": [
        {
          "internalType": "uint256",
          "name": "",
          "type": "uint256"
        }
      ],
      "stateMutability": "view",
      "type": "function"
    },
    {
      "inputs": [
        {
          "internalType": "uint256",
          "name": "id",
          "type": "uint256"
        },
        {
          "internalType": "uint256",
          "name": "quantity",
          "type": "uint256"
        },
        {
          "internalType": "address",
          "name": "to",
          "type": "address"
        }
      ],
      "name": "transferTicket",
      "outputs": [],
      "stateMutability": "nonpayable",
      "type": "function"
    }
  ],
  "bytecode": "0x608060405234801561001057600080fd5b506111af806100206000396000f3fe6080604052600436106100555760003560e01c80630b7914301461005a578063298ec2081461009c57806361b8ce8c146100b8578063bce062b9146100e3578063dae7a13c1461010c578063f086a09b14610149575b600080fd5b34801561006657600080fd5b50610081600480360381019061007c919061073a565b610172565b60405161009396959493929190610847565b60405180910390f35b6100b660048036038101906100b191906108b6565b6102de565b005b3480156100c457600080fd5b506100cd610413565b6040516100da91906108f6565b60405180910390f35b3480156100ef57600080fd5b5061010a60048036038101906101059190610a46565b610419565b005b34801561011857600080fd5b50610133600480360381019061012e9190610b11565b610565565b60405161014091906108f6565b60405180910390f35b34801561015557600080fd5b50610170600480360381019061016b9190610b51565b61058a565b005b60006020528060005260406000206000915090508060000160009054906101000a900473ffffffffffffffffffffffffffffffffffffffff16908060010180546101bb90610bd3565b80601f01602080910402602001604051908101604052809291908181526020018280546101e790610bd3565b80156102345780601f1061020957610100808354040283529160200191610234565b820191906000526020600020905b81548152906001019060200180831161021757829003601f168201915b50505050509080600201805461024990610bd3565b80601f016020809104026020016040519081016040528092919081815260200182805461027590610bd3565b80156102c25780601f10610297576101008083540402835291602001916102c2565b820191906000526020600020905b8154815290600101906020018083116102a557829003601f168201915b5050505050908060030154908060040154908060050154905086565b600080600084815260200190815260200160002090508181600301546103049190610c33565b3414610345576040517f08c379a000000000000000000000000000000000000000000000000000000000815260040161033c90610cc1565b60405180910390fd5b818160050154101561038c576040517f08c379a000000000000000000000000000000000000000000000000000000000815260040161038390610d2d565b60405180910390fd5b818160050160008282546103a09190610d4d565b9250508190555081600160003373ffffffffffffffffffffffffffffffffffffffff1673ffffffffffffffffffffffffffffffffffffffff168152602001908152602001600020600085815260200190815260200160002060008282546104079190610d81565b92505081905550505050565b60025481565b6000811161045c576040517f08c379a000000000000000000000000000000000000000000000000000000000815260040161045390610e27565b60405180910390fd5b6040518060c001604052803373ffffffffffffffffffffffffffffffffffffffff16815260200185815260200184815260200183815260200182815260200182815250600080600254815260200190815260200160002060008201518160000160006101000a81548173ffffffffffffffffffffffffffffffffffffffff021916908373ffffffffffffffffffffffffffffffffffffffff160217905550602082015181600101908161050f9190610ff3565b5060408201518160020190816105259190610ff3565b50606082015181600301556080820151816004015560a082015181600501559050506002600081548092919061055a906110c5565b919050555050505050565b6001602052816000526040600020602052806000526040600020600091509150505481565b81600160003373ffffffffffffffffffffffffffffffffffffffff1673ffffffffffffffffffffffffffffffffffffffff168152602001908152602001600020600085815260200190815260200160002054101561061d576040517f08c379a000000000000000000000000000000000000000000000000000000000815260040161061490611159565b60405180910390fd5b81600160003373ffffffffffffffffffffffffffffffffffffffff1673ffffffffffffffffffffffffffffffffffffffff1681526020019081526020016000206000858152602001908152602001600020600082825461067d9190610d4d565b9250508190555081600160008373ffffffffffffffffffffffffffffffffffffffff1673ffffffffffffffffffffffffffffffffffffffff168152602001908152602001600020600085815260200190815260200160002060008282546106e49190610d81565b92505081905550505050565b6000604051905090565b600080fd5b600080fd5b6000819050919050565b61071781610704565b811461072257600080fd5b50565b6000813590506107348161070e565b92915050565b6000602082840312156107505761074f6106fa565b5b600061075e84828501610725565b91505092915050565b600073ffffffffffffffffffffffffffffffffffffffff82169050919050565b600061079282610767565b9050919050565b6107a281610787565b82525050565b600081519050919050565b600082825260208201905092915050565b60005b838110156107e25780820151818401526020810190506107c7565b60008484015250505050565b6000601f19601f8301169050919050565b600061080a826107a8565b61081481856107b3565b93506108248185602086016107c4565b61082d816107ee565b840191505092915050565b61084181610704565b82525050565b600060c08201905061085c6000830189610799565b818103602083015261086e81886107ff565b9050818103604083015261088281876107ff565b90506108916060830186610838565b61089e6080830185610838565b6108ab60a0830184610838565b979650505050505050565b600080604083850312156108cd576108cc6106fa565b5b60006108db85828601610725565b92505060206108ec85828601610725565b9150509250929050565b600060208201905061090b6000830184610838565b92915050565b600080fd5b600080fd5b7f4e487b7100000000000000000000000000000000000000000000000000000000600052604160045260246000fd5b610953826107ee565b810181811067ffffffffffffffff821117156109725761097161091b565b5b80604052505050565b60006109856106f0565b9050610991828261094a565b919050565b600067ffffffffffffffff8211156109b1576109b061091b565b5b6109ba826107ee565b9050602081019050919050565b82818337600083830152505050565b60006109e96109e484610996565b61097b565b905082815260208101848484011115610a0557610a04610916565b5b610a108482856109c7565b509392505050565b600082601f830112610a2d57610a2c610911565b5b8135610a3d8482602086016109d6565b91505092915050565b60008060008060808587031215610a6057610a5f6106fa565b5b600085013567ffffffffffffffff811115610a7e57610a7d6106ff565b5b610a8a87828801610a18565b945050602085013567ffffffffffffffff811115610aab57610aaa6106ff565b5b610ab787828801610a18565b9350506040610ac887828801610725565b9250506060610ad987828801610725565b91505092959194509250565b610aee81610787565b8114610af957600080fd5b50565b600081359050610b0b81610ae5565b92915050565b60008060408385031215610b2857610b276106fa565b5b6000610b3685828601610afc565b9250506020610b4785828601610725565b9150509250929050565b600080600060608486031215610b6a57610b696106fa565b5b6000610b7886828701610725565b9350506020610b8986828701610725565b9250506040610b9a86828701610afc565b9150509250925092565b7f4e487b7100000000000000000000000000000000000000000000000000000000600052602260045260246000fd5b60006002820490506001821680610beb57607f821691505b602082108103610bfe57610bfd610ba4565b5b50919050565b7f4e487b7100000000000000000000000000000000000000000000000000000000600052601160045260246000fd5b6000610c3e82610704565b9150610c4983610704565b9250828202610c5781610704565b91508282048414831517610c6e57610c6d610c04565b5b5092915050565b7f457468657265206973206e6f7420656e6f756768000000000000000000000000600082015250565b6000610cab6014836107b3565b9150610cb682610c75565b602082019050919050565b60006020820190508181036000830152610cda81610c9e565b9050919050565b7f4e6f7420656e6f756768207469636b6574730000000000000000000000000000600082015250565b6000610d176012836107b3565b9150610d2282610ce1565b602082019050919050565b60006020820190508181036000830152610d4681610d0a565b9050919050565b6000610d5882610704565b9150610d6383610704565b9250828203905081811115610d7b57610d7a610c04565b5b92915050565b6000610d8c82610704565b9150610d9783610704565b9250828201905080821115610daf57610dae610c04565b5b92915050565b7f596f752063616e206f7267616e697a65206576656e74206f6e6c79206966207960008201527f6f7520637265617465206d6f7265207468616e2030207469636b657473000000602082015250565b6000610e11603d836107b3565b9150610e1c82610db5565b604082019050919050565b60006020820190508181036000830152610e4081610e04565b9050919050565b60008190508160005260206000209050919050565b60006020601f8301049050919050565b600082821b905092915050565b600060088302610ea97fffffffffffffffffffffffffffffffffffffffffffffffffffffffffffffffff82610e6c565b610eb38683610e6c565b95508019841693508086168417925050509392505050565b6000819050919050565b6000610ef0610eeb610ee684610704565b610ecb565b610704565b9050919050565b6000819050919050565b610f0a83610ed5565b610f1e610f1682610ef7565b848454610e79565b825550505050565b600090565b610f33610f26565b610f3e818484610f01565b505050565b5b81811015610f6257610f57600082610f2b565b600181019050610f44565b5050565b601f821115610fa757610f7881610e47565b610f8184610e5c565b81016020851015610f90578190505b610fa4610f9c85610e5c565b830182610f43565b50505b505050565b600082821c905092915050565b6000610fca60001984600802610fac565b1980831691505092915050565b6000610fe38383610fb9565b9150826002028217905092915050565b610ffc826107a8565b67ffffffffffffffff8111156110155761101461091b565b5b61101f8254610bd3565b61102a828285610f66565b600060209050601f83116001811461105d576000841561104b578287015190505b6110558582610fd7565b8655506110bd565b601f19841661106b86610e47565b60005b828110156110935784890151825560018201915060208501945060208101905061106e565b868310156110b057848901516110ac601f891682610fb9565b8355505b6001600288020188555050505b505050505050565b60006110d082610704565b91507fffffffffffffffffffffffffffffffffffffffffffffffffffffffffffffffff820361110257611101610c04565b5b600182019050919050565b7f596f7520646f206e6f74206861766520656e6f756768207469636b6574730000600082015250565b6000611143601e836107b3565b915061114e8261110d565b602082019050919050565b6000602082019050818103600083015261117281611136565b905091905056fea26469706673582212206ac9479a570abfed74145e44b75cd38cde552422421011996d23325dfb22e75464736f6c63430008110033",
  "linkReferences": {},
  "deployedLinkReferences": {}
}